:020000040800F2
:100000009005002005010008352000089B1D000810
:1000100031200008710100086D2700080000000071
:100020000000000000000000000000006520000843
:10003000F1010008000000003920000881200008BC
:100040001F0100081F0100081F0100081F01000810
:100050001F0100081F0100081F0100081F01000800
:100060001F010008F30100081F0100081F0100081C
:100070001F0100081F0100081F0100081F010008E0
:10008000B50100081F0100081F0100081F0100083A
:100090001F0100081F0100081F0100081F010008C0
:1000A0001F0100089D2100081F0100081F01000812
:1000B000AD2100081F010008000000001F0100081A
:1000C0001F01000800000000000000001F010008E0
:1000D000000000001F0100085D270008000000006C
:1000E0001F0100081F0100081F010008DFF810D0E1
:1000F00000F02CF800480047C9270008AFF3008043
:10010000900500200648804706480047FEE7FEE7C6
:10011000FEE7FEE7FEE7FEE7FEE7FEE7FEE7FEE7B7
:10012000F3200008ED000008D2B201E000F8012B36
:10013000491EFBD270470022F6E710B513460A4667
:1001400004461946FFF7F0FF204610BD064C074D48
:1001500006E0E06840F0010394E807009847103497
:10016000AC42F6D3FFF7C6FFA4280008C428000855
:1001700000BFFEE710B500240B480078B1280DD170
:10018000C1200A49096808704FF6FF730122074829
:100190000168074801F097FD012400E000240020D9
:1001A00001490870204610BD0200002024000020F4
:1001B0000801002010B5024800F008F910BD000049
:1001C0004C01002030B590F840500124AC40C56B84
:1001D0006C60046863604468102C04D10468A260F9
:1001E0000468E16003E00468A1600468E26030BD77
:1001F000704710B5082000F073FA10BD10B5114813
:10020000007801281CD100200F49087008200F49F0
:100210000968087000200E49096848620C480068A7
:10022000006840F001000A49096808604FF6FF7352
:10023000012206480168074801F045FD012010BD74
:100240000020FCE722000020020000202400002003
:10025000340000200801002072B600BFFEE701460E
:10026000002291F82100022808D00420886300BFF2
:10027000002081F8200000BF012070470868006856
:1002800020F00E000B6818600868006820F001007C
:100290000B68186091F8403001209840CB6B586093
:1002A000012081F8210000BF002081F8200000BF5C
:1002B0001046E2E770B50446002594F821000228B4
:1002C00003D00420A063012548E02068006820F0E6
:1002D0000E00216808602068006820F00100216895
:1002E00008601F492068884201D1012026E01C498E
:1002F00014312068884201D110201FE018492831AC
:100300002068884201D1801518E015493C312068E9
:10031000884201D1801411E011495031206888428F
:1003200002D14FF4803009E00D49643120688842E1
:1003300002D14FF4801001E04FF080700849083975
:100340004860012084F8210000BF002084F82000CC
:1003500000BF606B10B12046616B8847284670BDB6
:1003600008000240014609B901207047086800688A
:1003700020F001000A68106000200A6810600A6816
:1003800050600A6890600A68D0600F4A0868801A56
:100390001422B0FBF2F0800008640B480838C863F0
:1003A00091F8402001209040CA6B50600020886284
:1003B000C86208634863886381F8210000BF81F840
:1003C000200000BF00BFD0E70800024070B504461F
:1003D000E06B05682068066894F8401004208840A7
:1003E0002840002846D006F00400002842D02068AB
:1003F000006800F0200028B92068006820F00400A0
:100400002168086057492068884201D1042027E00C
:10041000544914312068884201D1402020E05149DC
:1004200028312068884201D1001519E04D493C313E
:100430002068884202D14FF4804011E04949503190
:100440002068884202D14FF4802009E04549643198
:100450002068884202D14FF4800001E04FF08060B4
:10046000404908394860E06A00287AD02046E16AAD
:10047000884776E094F84010022088402840A0B3D6
:1004800006F0020088B32068006800F0200040B940
:100490002068006820F00A0021680860012084F8C4
:1004A000210030492068884201D1022028E02D49EE
:1004B00014312068884201D1202021E029492831C7
:1004C0002068884201D140151AE026493C31206855
:1004D000884202D14FF4005012E022495031206886
:1004E000884203D14FF400300AE017E01D4964311F
:1004F0002068884202D14FF4001001E04FF00070F4
:1005000018490839486000BF002084F8200000BF67
:10051000A06A30B32046A16A884722E094F84010D0
:10052000082088402840E0B106F00800C8B12068E3
:10053000006820F00E002168086094F84010012047
:100540008840E16B48600120A06384F8210000BF6F
:10055000002084F8200000BF206B10B12046216BE2
:10056000884770BD080002400146002209B90120F9
:100570007047164B0868C01A1423B0FBF3F08000D4
:10058000086412480838C863022081F8210008680E
:10059000026843F6F0708243D1E901031843CB6847
:1005A00018430B6918434B6918438B691843CB698F
:1005B000184302430868026000208863012081F824
:1005C0002100002081F8200000BFD1E70800024090
:1005D0002DE9F04104460D4616461F464FF000082F
:1005E00000BF94F82000012802D10220BDE8F0816C
:1005F000012084F8200000BF94F8210001282CD1AC
:10060000022084F821000020A0632068006820F008
:100610000100216808603B46324629462046FFF724
:10062000D1FDE06A30B12068006840F00E0021681A
:1006300008600BE02068006820F004002168086072
:100640002068006840F00A0021680860206800689F
:1006500040F001002168086006E000BF002084F837
:10066000200000BF4FF002084046BFE770B50446C7
:1006700000F0D0F906462546681C10B10448007801
:10068000054400BF00F0C6F9801BA842FAD370BD34
:1006900010000020082818D10C490968096841F0A9
:1006A00001010A4A1268116009490968096841F0A4
:1006B0000101074A1268116006490968064A11409B
:1006C000044A11600121054A117070477C00002026
:1006D0003400002000040140FCFFFFF9220000204C
:1006E00010B5044604480068204020B10248046068
:1006F0002046FFF7CFFF10BD140401402DE9F84755
:1007000003460022944666E14FF0010808FA02F41D
:10071000D1F8008008EA0400A0427DD1DFF8CCA225
:10072000D1F80480A8EB0A09D0453AD014DCB8F11E
:10073000030F50D009DCB8F1000F31D0B8F1010F30
:100740001CD0B8F1020F49D120E0B8F1110F18D038
:10075000B8F1120F42D11EE0B9F5881F25D006DC92
:10076000B9F5803F20D0B9F5801F37D11AE0B9F52F
:10077000001F18D0B9F5041F30D117E0D1F80CC014
:100780002DE0D1F80C8008F1040C28E0D1F80C80A1
:1007900008F1080C23E0D1F80C8008F10C0C1EE0E5
:1007A00000BF00BF00BF00BF00BF00BFD1F808807E
:1007B000B8F1000F02D14FF0040C0BE0D1F8088023
:1007C000B8F1010F03D14FF0080C1C6102E04FF0AB
:1007D000080C5C6103E04FF0000C00E000BF00BFBC
:1007E000FF2801D8984601E003F104084646FF2897
:1007F00002D84FEA820803E0A2F108084FEA88080D
:100800004746D6F800804FF00F0909FA07F928EAA1
:1008100009080CFA07F900E085E048EA0908C6F87B
:100820000080D1F8048008F08058B8F1805F7AD158
:1008300000BFDFF8BC81D8F8188048F00108DFF865
:10084000B091C9F81880C846D8F8188008F0010897
:10085000CDF8008000BF00BF4FEAB9384FEA9209D7
:1008600058F829504FEA82784FEA18794FF00F086C
:1008700008FA09F825EA0805DFF87881434502D12E
:100880004FF000080FE0DFF87081434502D14FF0D0
:10089000010808E0DFF86481434502D14FF0020807
:1008A00001E04FF003084FEA82794FEA197908FA1C
:1008B00009F848EA0505DFF848814FEA920948F847
:1008C0002950D1F8048008F48038B8F5803F0AD167
:1008D000DFF83081D8F8008048EA0008DFF824917A
:1008E000C9F8008009E0DFF81C81D8F8008028EA08
:1008F0000008DFF81091C9F80080D1F8048008F4EE
:100900000038B8F5003F0FD1DFF8F88008F104088F
:10091000D8F8008048EA0008DFF8E89009F10409F7
:10092000C9F800800EE055E0DFF8D88008F104082F
:10093000D8F8008028EA0008DFF8C89009F1040917
:10094000C9F80080D1F8048008F48018B8F5801F39
:100950000ED1DFF8B08008F10808D8F8008048EA26
:100960000008DFF8A09009F10809C9F800800DE03F
:10097000DFF8908008F10808D8F8008028EA00081D
:10098000DFF8809009F10809C9F80080D1F80480E7
:1009900008F40018B8F5001F0ED1DFF8688008F1E0
:1009A0000C08D8F8008048EA0008DFF8589009F1F0
:1009B0000C09C9F800800DE0DFF8488008F10C0848
:1009C000D8F8008028EA0008DFF8389009F10C090F
:1009D000C9F80080521CD1F8008028FA02F8B8F15A
:1009E000000F7FF491AEBDE8F88700000000111001
:1009F0000010024000080140000C014000100140BE
:100A000008000140000401400AB1016101E00B044B
:100A1000036170470148006870470000080000202B
:100A200070B504460CB9012070BD4CF6CC4021686D
:100A3000086045F2555021680860D4E9001048600C
:100A40002168A0688860FFF7E5FF05460BE0FFF727
:100A5000E1FF401B272806D92068C06800F003008A
:100A600008B10320E0E72068C06800F00300002818
:100A7000EDD14AF6AA20216808600020D4E70000E2
:100A80000348006803490978084401490860704731
:100A9000080000201000002010B50848006840F051
:100AA000100006490860032000F0A8F80F2000F0AD
:100AB00007F800F02BF8002010BD000000200240D5
:100AC00070B504460E4800784FF47A71B1FBF0F02F
:100AD0000C490968B1FBF0F5284600F00BFC08B1A1
:100AE000012070BD102C07D200222146501E00F0BC
:100AF00047F80548046001E00120F2E70020F0E734
:100B000010000020140000200C00002008B500BFD9
:100B10001148806940F001000F49886108468069EA
:100B200000F00100009000BF00BF00BF0846C06990
:100B300040F08050C8610846C06900F080500090C5
:100B400000BF00BF00BF0549486820F0E06040F0EA
:100B50000070486000BF08BD001002400000014066
:100B600001460846002809DB00F01F0301229A40D5
:100B700043099B0003F1E023C3F8002100BF704745
:100B80002DE9F05F80460D461646002701F0F0FD86
:100B9000074639462A46334601F00700C0F1070AE6
:100BA000BAF1040F02D94FF0040A01E0C0F1070ABC
:100BB000D14600F1040ABAF1070F02D24FF0000A41
:100BC00001E0A0F1030AD4464FF0010A0AFA09FA3B
:100BD000AAF1010A0AEA020A0AFA0CFA4FF0010B1A
:100BE0000BFA0CFBABF1010B0BEA030B4AEA0B040B
:100BF0002146404601F0C4FDBDE8F09F00BF00F073
:100C00000702064B19684FF6FF031940044B0B43CC
:100C100043EA0221014B196000BF70470CED00E070
:100C20000000FA0570B504460D460CB9012070BDF0
:100C30005A48006800F00700A8420ED257480068E2
:100C400020F007002843554908600846006800F076
:100C50000700A84201D00120E9E7207800F0020057
:100C600002281DD1207800F00400042805D14C484A
:100C7000406840F4E0604A494860207800F008008D
:100C8000082805D14648406840F46050444948600F
:100C90004348406820F0F000A1680843404948609C
:100CA000207800F0010078B36068012806D13C4844
:100CB000006800F4003090B90120B8E760680228AD
:100CC00006D13748006800F0007040B90120AEE757
:100CD0003348006800F0020008B90120A7E7304857
:100CE000406820F00300616808432D494860FFF721
:100CF00091FE064609E0FFF78DFE801B41F2883128
:100D0000884202D9032092E707E02548406800F0B6
:100D10000C006168B0EB810FEDD12048006800F055
:100D20000700A8420ED91D48006820F0070028439C
:100D30001A4908600846006800F00700A84201D080
:100D4000012074E7207800F00400042807D114483B
:100D5000406820F4E060E168084311494860207869
:100D600000F00800082808D10D48406820F46050C1
:100D7000216940EAC1000A49486000F03FF808498B
:100D80004968C1F30311074A515CC840064908602D
:100D900006480068FFF794FE002048E70020024064
:100DA000001002408C280008140000200C000020D5
:100DB00001480068704700001400002000B5FFF7EC
:100DC000F7FF04494968C1F30221034A515CC84056
:100DD00000BD0000001002409C28000800B5FFF78D
:100DE000E7FF04494968C1F3C221034A515CC84086
:100DF00000BD0000001002409C280008F0B585B03E
:100E00000FF26C0C9CE8E01001A8A0E8E0101CA513
:100E10002D68009500210022002300240020194D98
:100E2000696801F00C05F5B1042D02D0082D19D127
:100E300001E0154819E001ADC1F38346AC5D01F452
:100E4000803555B10F4D6D68C5F340451DF805203F
:100E50000D4D6543B5FBF2F302E00C4D04FB05F3C9
:100E6000184602E000BF084800BF00BF05B0F0BD53
:100E700002030405060708090A0B0C0D0E0F1010DB
:100E8000010200000010024000127A0000093D003B
:100E9000F8B504460CB90120F8BD207800F0010037
:100EA000002878D0F848406800F00C0004280CD0E6
:100EB000F548406800F00C00082811D1F24840685D
:100EC00000F48030B0F5803F0AD1EF48006800F4AC
:100ED000003000285FD0606800285CD10120DBE78B
:100EE00000BF6068B0F5803F06D1E748006840F475
:100EF0008030E549086028E0606858B9E248006839
:100F000020F48030E04908600846006820F4802022
:100F100008601AE06068B0F5A02F0BD1DA480068CD
:100F200040F48020D84908600846006840F48030CA
:100F300008600AE0D448006820F48030D249086094
:100F40000846006820F48020086000BF606888B10F
:100F5000FFF760FD054606E0FFF75CFD401B6428D7
:100F600001D9032098E7C848006800F40030002841
:100F7000F2D010E0FFF74EFD054606E0FFF74AFD10
:100F8000401B642801D9032086E7BF48006800F4AD
:100F900000300028F2D1207800F00200022857D15A
:100FA000B948406800F00C0050B1B748406800F004
:100FB0000C00082818D1B448406800F4803098B973
:100FC000B148006800F0020020B12069012801D07A
:100FD000012061E7AC48006820F0F800616940EA50
:100FE000C100A949086033E02069E8B10120A749A0
:100FF0000860FFF70FFD054606E0FFF70BFD401BFD
:10100000022801D9032047E79F48006800F002004A
:101010000028F2D09C48006820F0F800616940EA9E
:10102000C1009949086013E0002098490860FFF763
:10103000F1FC054606E0FFF7EDFC401B022801D954
:10104000032029E79048006800F002000028F2D150
:10105000207800F0080008282DD1A069B8B101203F
:101060008B490860FFF7D6FC054606E0FFF7D2FC87
:10107000401B022801D903200EE78348406A00F094
:1010800002000028F2D0012000F0D8FF13E0002079
:101090007F490860FFF7BEFC054606E0FFF7BAFC93
:1010A000401B022801D90320F6E67748406A00F089
:1010B00002000028F2D1207800F00400042873D147
:1010C00000277148C06900F0805070B900BF6E48B9
:1010D000C06940F080506C49C8610846C06900F0A2
:1010E0008050009000BF00BF01276A48006800F4EC
:1010F0008070B0B96748006840F480706549086046
:10110000FFF788FC054606E0FFF784FC401B6428D7
:1011100001D90320C0E65F48006800F48070002811
:10112000F2D000BFE068012806D15748006A40F0BD
:1011300001005549086227E0E06858B95248006A42
:1011400020F00100504908620846006A20F00400BF
:10115000086219E0E06805280BD14B48006A40F0AE
:101160000400494908620846006A40F0010008622C
:101170000AE04548006A20F0010043490862084639
:10118000006A20F00400086200BFE068A0B1FFF729
:1011900041FC054609E0FFF73DFC401B41F2883168
:1011A000884202D9032077E622E03748006A00F03F
:1011B00002000028EFD012E0FFF72CFC054608E003
:1011C000FFF728FC401B41F28831884201D90320F7
:1011D00062E62D48006A00F002000028F0D1012FDD
:1011E00005D12948C06920F080502749C86100BF57
:1011F000E069C8B32448406800F00C00082860D0BB
:10120000E069022848D1002020490866FFF702FC67
:10121000054606E0FFF7FEFB401B022801D903202C
:101220003AE61948006800F000700028F2D1206A00
:10123000B0F5803F07D11448406820F40030A16821
:10124000084311494860D4E9080108430E49496838
:1012500021F4741108430C49486001200B490866C9
:10126000FFF7D8FB054607E03DE0FFF7D3FB401B47
:10127000022801D903200FE60348006800F000703F
:101280000028F2D02FE0000000100240000042428F
:101290008004424200700040002014490866FFF7B5
:1012A000B9FB054606E0FFF7B5FB401B022801D954
:1012B0000320F1E50E48006800F000700028F2D12C
:1012C00011E0E069012800D1E6E50948466806F426
:1012D0008031206A814204D106F47011606A814233
:1012E00001D00120D8E50020D6E5000000004242F0
:1012F0000010024070B504462546681EB0F1807F9C
:1013000001D301200FE0681E4FF0E02148610F215A
:101310004FF0FF3001F034FA00204FF0E0218861F7
:1013200007200861002070BD7047704730B5024645
:101330000B4600BF92F83C00012801D1022030BDCD
:10134000012082F83C0000BF022082F83D001068B6
:1013500044681068816824F07004186804431068B9
:1013600044600E4D1068A84207D01068B0F1804F5D
:1013700003D00B4D1068A84205D121F080015868B8
:10138000014310688160012082F83D0000BF002009
:1013900082F83C0000BF00BFD1E70000002C0140F4
:1013A0000004004010B504460CB9012010BD94F8AB
:1013B0003D0028B9002084F83C00204600F026F8C3
:1013C000022084F83D00211D206800F0F7FE012076
:1013D00084F8460000BF84F83E0001213F200155FB
:1013E000402001554120015500BF00BF012084F875
:1013F000420043200155442001554520015500BFBE
:10140000012084F83D000020D0E7000038B50446F4
:101410001A492068884216D100BF1948806940F4F3
:101420000060174988610846806900F400600090F8
:1014300000BF00BF002211461920FFF7A1FB1920B1
:10144000FFF78EFB19E02068B0F1804F15D100BF87
:101450000B48C06940F001000949C8610846C069ED
:1014600000F00100009000BF00BF002211461C20C8
:10147000FFF786FB1C20FFF773FB38BD002C0140F3
:1014800000100240014691F83D00012801D00120E2
:101490007047022081F83D000868C06840F00100F4
:1014A0000B68D860104B0868984207D00868B0F104
:1014B000804F03D00D4B086898420CD108688068B3
:1014C00000F00702062A0CD00868006840F001000E
:1014D0000B68186005E00868006840F001000B68C0
:1014E00018600020D4E70000002C014000040040F8
:1014F000014600BF0868006A41F21112104050B95D
:101500000868006A9210104028B90868006820F046
:1015100001000A68106000BF012081F83D00002032
:1015200070472DE9F04104460D4600BF94F83C0099
:10153000012802D10220BDE8F081012084F83C009E
:1015400000BF022084F83D002068866826F07706F8
:1015500026F47F46206886602868502833D00CDC4B
:10156000202850D004DC00284BD0102851D149E06D
:10157000302849D040284CD139E060282DD070283F
:1015800007D0B0F5805F03D0B0F5005F41D10DE02A
:1015900040E0D5E902136A68206800F041FE206847
:1015A000866846F077062068866033E0D5E9021346
:1015B0006A68206800F034FE2068806840F480404B
:1015C0002168886026E0EA686968206800F03CFECF
:1015D0005021206800F02FFE1CE0EA68696820684E
:1015E00000F045FE6021206800F025FE12E0EA6868
:1015F0006968206800F028FE4021206800F01BFE8A
:1016000008E000BF00BF00BF2968206800F013FE9B
:1016100000E000BF00BF012084F83D0000BF0020B3
:1016200084F83C0000BF00BF85E7704710B5044652
:1016300020680069C0F34000D8B12068C068C0F3DA
:101640004000B0B16FF002002168086101202077EE
:101650002068806900F0030018B12046FFF7E5FF1D
:1016600005E0204600F0ADF8204600F0ABF8002081
:10167000207720680069C0F38000D8B12068C06876
:10168000C0F38000B0B16FF004002168086102204F
:1016900020772068806900F4407018B12046FFF779
:1016A000C4FF05E0204600F08CF8204600F08AF8E0
:1016B0000020207720680069C0F3C000D8B12068FE
:1016C000C068C0F3C000B0B16FF0080021680861C5
:1016D000042020772068C06900F0030018B120467C
:1016E000FFF7A3FF05E0204600F06BF8204600F06E
:1016F00069F80020207720680069C0F30010D8B195
:101700002068C068C0F30010B0B16FF0100021680D
:101710000861082020772068C06900F4407018B183
:101720002046FFF782FF05E0204600F04AF82046F9
:1017300000F048F8002020772068006900F00100E0
:1017400058B12068C06800F0010030B16FF00100AE
:1017500021680861204600F037F820680069C0F36E
:10176000C01058B12068C068C0F3C01030B16FF02D
:101770008000216808612046FFF7D6FD20680069D7
:10178000C0F3801058B12068C068C0F3801030B139
:101790006FF0400021680861204600F055F820688D
:1017A0000069C0F3401058B12068C068C0F3401011
:1017B00030B16FF02000216808612046FFF7B5FDC9
:1017C00010BD7047704700001A4A0168914204D169
:1017D00019490978491C184A11700168B1F1804F04
:1017E00027D116490978491C144A11701146097805
:1017F00014291EDD00BF0168096A41F2111211406F
:1018000051B90168096A9210114029B90168096843
:1018100021F001010268116000BF002102685162DD
:1018200007490968074A1143054A11600021034A24
:1018300011707047002C01400000002001000020C2
:101840000004014003000006704770477047000025
:101850002DE9F84F0446206805682068C6682068AE
:1018600047694FF00009CA4605F00F09B9F1000FAA
:101870000AD105F0200038B106F0200020B1204642
:1018800000F0C9FDBDE8F88FB9F1000F71D007F085
:10189000010018B906F4907000286AD005F0010024
:1018A00030B106F4807018B1206C40F00100206463
:1018B00005F0040030B107F0010018B1206C40F0D1
:1018C0000200206405F0020030B107F0010018B1F9
:1018D000206C40F00400206405F0080048B106F0D8
:1018E000200010B907F0010018B1206C40F008008A
:1018F0002064206C68B305F0200028B106F02000B9
:1019000010B1204600F087FD20684069C0F3801ABE
:10191000206C00F0080010B9BAF1000F22D0204668
:1019200000F044FD2068406900F04000B0B120683C
:10193000406920F0400021684861A06B50B15648D2
:10194000A16B4863A06BFEF7B5FC10B1A06B416BB7
:1019500088470CE02046FFF779FF08E02046FFF7B4
:1019600075FF04E02046FFF771FF0020206489E73F
:10197000FFE7206B012878D105F01000002874D013
:1019800006F01000002870D000BF002000902068F2
:101990000068009020684068009000BF00BF206889
:1019A000406900F04000C0B3A06B006840681FFAB7
:1019B00080F8B8F1000F2FD0A08D40452CDDA4F8A1
:1019C0002E80A06B806920281FD02068C06820F47A
:1019D00080702168C8602068406920F0010021689B
:1019E00048612068406920F040002168486120205B
:1019F00084F83E00002020632068C06820F01000BA
:101A00002168C860A06BFEF72AFCA08DE28D801AC9
:101A100081B22046FFF719FF34E7FFE7A08DE18D83
:101A2000401A1FFA80F8E08DE8B1B8F1000F1AD023
:101A30002068C06820F490702168C8602068406900
:101A400020F0010021684861202084F83E00002039
:101A500020632068C06820F010002168C8604146FB
:101A60002046FFF7F2FE0DE7FFE705F0800030B1FA
:101A700006F0800018B1204600F00AFE02E705F0EB
:101A8000400030B106F0400018B1204600F0A9FC3B
:101A9000F8E600BFF6E60000C122000810B50446D3
:101AA0000CB9012010BDA06900B100E000BF94F89E
:101AB0003D0028B9002084F83C00204600F028F8BA
:101AC000242084F83D002068C06820F4005021687C
:101AD000C860204600F012FD2068006920F49040A4
:101AE000216808612068406920F02A002168486167
:101AF0002068C06840F400502168C860002020645D
:101B0000202084F83D0084F83E000020CAE7000051
:101B100010B586B004460020029003900490059012
:101B20004549206888422FD100BF4448806940F46D
:101B30008040424988610846806900F480400190F5
:101B400000BF00BF00BF0846806940F00400886104
:101B50000846806900F00400019000BF00BF4815EE
:101B60000290022003900320059002A93448FEF75A
:101B7000C5FD4FF48060029000200390049002A9FC
:101B80002F48FEF7BBFD54E02E492068884250D113
:101B900000BF2A48C06940F400302849C86108469F
:101BA000C06900F40030019000BF00BF00BF0846CC
:101BB000806940F0040088610846806900F00400F4
:101BC000019000BF00BF0420029002200390032078
:101BD000059002A91A48FEF791FD08200290002006
:101BE0000390049002A91648FEF788FD164817498D
:101BF0000860002048600021144881608021C16095
:101C000000210161416181614FF48051C161FEF7A2
:101C1000ABFC08B1FEF720FB00BF0C48A063446298
:101C200000BF002211462620FEF7AAFF2620FEF75D
:101C300097FF06B010BD00000038014000100240C0
:101C400000080140004400406C0002404C010020AC
:101C500070B504460D46164694F83E00202816D16D
:101C600005B10EB9012070BD00BF94F83C000128F9
:101C700001D10220F7E7012084F83C0000BF0020DA
:101C8000206332462946204600F0B6FCEBE70220EE
:101C9000E9E7000010B5044606492068884207D1EC
:101CA0000A2205490548FFF7D3FF0548FEF75AFB0E
:101CB00010BD000000440040020000200801002088
:101CC0004C01002070472DE9F84F04460E46174698
:101CD00099464FF0000A94F83D0020285AD106B1E9
:101CE00017B90120BDE8F88F00BF94F83C00012827
:101CF00001D10220F6E7012084F83C0000BF00205B
:101D00002064212084F83D00FEF784FE8246A784EB
:101D1000E784A068B0F5805F04D1206910B9002580
:101D2000B04602E035464FF0000800BF002084F8BE
:101D30003C0000BF1BE05346002280212046CDF826
:101D4000009000F0D5FC08B10320CBE745B9B8F806
:101D50000000C0F308002168486008F1020803E0B1
:101D60002878216848606D1CE08C401EE084E08C7F
:101D70000028E0D15346002240212046CDF80090B3
:101D800000F0B6FC08B10320ACE7202084F83D0049
:101D90000020A7E70220A5E7704700BFFEE700008C
:101DA00008B500BF0A48406940F001000849486191
:101DB0000846406900F00100009000BF00BF00220B
:101DC00011461020FEF7DCFE1020FEF7C9FE08BD0C
:101DD0000010024000B585B00020019002900390F1
:101DE000049000BF2648806940F0200024498861A3
:101DF0000846806900F02000009000BF00BF00BFCF
:101E00000846806940F0040088610846806900F057
:101E10000400009000BF00BF00BF0846806940F08A
:101E2000080088610846806900F00800009000BF43
:101E300000BF01224FF440511248FEF7E5FD4FF478
:101E40004050019001200290002003900220049055
:101E500001A90C48FEF752FC082001900A480290A4
:101E60000020039001A90748FEF748FC0022114614
:101E70000920FEF785FE0920FEF772FE05B000BDC1
:101E800000100240000C01400000111010B507487E
:101E9000074908600020486040F6FF7104488160EF
:101EA000FEF7BEFD08B1FEF7D7F910BD00300040C7
:101EB0002800002000B587B0002003900490059012
:101EC0000690019002901B481B49086048F69F400D
:101ED00048600021184881600921C160002101612A
:101EE000416180218161FFF75DFA08B1FEF7B4F925
:101EF0004FF48050039003A90F48FFF712FB08B17D
:101F0000FEF7AAF900200190029001A90A48FFF704
:101F10000DFA08B1FEF7A0F96FF001000649096853
:101F200008610548FFF7AEFA0348FFF7E1FA07B08A
:101F300000BD0000002C01403400002000B587B037
:101F400000200390049005900690019002904FF0BD
:101F500080401A49086048F69F40486000211748B1
:101F60008160C721C1600021016180218161FFF78B
:101F700019FA08B1FEF770F94FF48050039003A9E5
:101F80000E48FFF7CEFA08B1FEF766F9002001907F
:101F9000029001A90948FFF7C9F908B1FEF75CF9F9
:101FA0006FF001000549096808610448FFF76AFA03
:101FB0000248FFF79DFA07B000BD00007C0000203A
:101FC00010B50B480B4908604FF4E1304860002120
:101FD00008488160C16001610C214161002181617B
:101FE000C161FFF75BFD08B1FEF736F910BD0000D7
:101FF00000380140C400002010B50B480B490860B0
:102000004FF4E1304860002108488160C1600161FF
:102010000C21416100218161C161FFF73FFD08B1E1
:10202000FEF71AF910BD000000440040080100202E
:1020300000BFFEE700BFFEE77047000008B5084993
:102040000968C9084FF47A72B1FBF2F1414300917B
:1020500000BF00BF00994A1E00920029F9D108BDB7
:1020600014000020704700000020044909788829E6
:1020700003D101200021014A1170704702000020A5
:1020800010B5FEF7FDFC10BD00B58FB0282105A8E6
:10209000FEF751F814216846FEF74DF80920059027
:1020A0004FF48030069000200790012009900B909B
:1020B00002200C90C1030D914FF4E0110E9105A880
:1020C000FEF7E6FE08B1FEF7C7F80F2000900220E9
:1020D0000190002002904FF4806003900020049053
:1020E00002216846FEF79EFD08B1FEF7B5F80FB075
:1020F00000BD704700BF21480068006A41F211111D
:10210000084068B91D480068006A8910084038B95D
:102110001A480068006820F0010018490968086042
:1021200000BF00BF16480068006A41F21111084064
:1021300068B913480068006A8910084038B9104827
:102140000068006820F001000D490968086000BFC0
:1021500000200A4909684862094909684862094932
:102160000870094908700949087009490870094848
:102170000068094908430749086070473400002097
:102180007C0000200200002022000020000000202F
:1021900023000020000401400300000610B502489F
:1021A000FFF744FA10BD00003400002010B50248CB
:1021B000FFF73CFA10BD00007C00002010B502685B
:1021C000154B984205D0B0F1804F02D0134B984286
:1021D00003D122F070024B681A430F4B984205D08E
:1021E000B0F1804F02D00D4B984203D122F44072DF
:1021F000CB681A4322F080034C6943EA0402026070
:102200008B68C3620B688362034B984201D10B69F0
:1022100003630123436110BD002C01400004004012
:1022200030B50C46816821F47F4142EA03252543FD
:102230002943816030BD0A46816821F0700142F077
:10224000070319438160704730B50B461446026A94
:10225000056A25F001050562816921F0F00141EA76
:10226000041122F00A021A438161026230BD30B5C6
:102270000B461446056A25F0100505628169026A5D
:1022800021F4704141EA043122F0A00242EA031233
:102290008161026230BD0000074800780A2807D13A
:1022A00006480078401C0549087000200249087063
:1022B0000248007870470000000000202300002042
:1022C00070B505466C6A0020E085E0842046FFF783
:1022D000BDFA70BD70B506460025746A2068406975
:1022E000C0F3C01594F83D00212805D125B1002088
:1022F000E084204600F085F820684069C0F380152E
:1023000094F83E00222805D125B10020E085204622
:1023100000F04CF8206C40F0100020642046FFF7DD
:1023200095FA70BD70B505466C6A2868006800F0C3
:102330002000F8B90020E0852068C06820F4807093
:102340002168C8602068406920F001002168486168
:102350002068406920F0400021684861202084F80E
:102360003E00206B012805D12068C06820F01000D5
:102370002168C860206B012804D1A18D2046FFF799
:1023800064FA02E02046FFF785FC70BD70B5054693
:102390006C6A206B012805D1A08D41082046FFF70B
:1023A00054FA02E02046FFF78DFC70BD0168C96851
:1023B00021F490710268D1600168496921F001013E
:1023C00002685161016B012905D10168C96821F0DA
:1023D00010010268D160202180F83E1000210163C5
:1023E000704710B504462068C06820F0400021689E
:1023F000C860202084F83D002046FFF7CDFC002077
:1024000010BD0168C96821F0C0010268D1602021B7
:1024100080F83D107047F8B5044694F83E00222835
:1024200069D1A068B0F5805F0CD1206950B9002552
:10243000A66A20684068C0F308003080A06A801C4B
:10244000A06215E0A56A0026A068B0F5805F03D001
:10245000A06828B9206918B920684068287004E08D
:102460002068406800F07F002870A06A401CA062CD
:10247000E08D401E80B2E085A8BB2068C06820F0D7
:1024800020002168C8602068C06820F4807021683E
:10249000C8602068406920F0010021684861202060
:1024A00084F83E00206B01281ED1002020632068A4
:1024B000C06820F010002168C8602068006800F043
:1024C000100010280AD100BF00200090206800688A
:1024D000009020684068009000BF00BFA18D20469A
:1024E000FFF7B3F903E004E02046FFF7D3FB002039
:1024F000F8BD0020FCE70220FAE7000070B50446B2
:102500002168096921F44051E26811432268116190
:102510002269A1681143626941EA02052168C9681C
:1025200041F20C62914329432268D16021684969D4
:1025300021F44071A2691143226851612D4A21683A
:10254000914202D1FEF74AFC01E0FEF737FC00EBB6
:10255000C00101EB001162689200B1FBF2F100EBE7
:10256000C00202EB001263689B00B2FBF3F264232B
:10257000B2FBF3F202EBC20303EB0212A1EB820106
:10258000322202EB01116422B1FBF2F101F0F00101
:1025900000EBC00202EB001263689B00B2FBF3F297
:1025A0006423B2FBF3F201EB021200EBC00101EB7A
:1025B000001163689B00B1FBF3F100EBC00303EB78
:1025C00000136668B600B3FBF6F36426B3FBF6F3BC
:1025D00003EBC30606EB0313A1EB8301322303EBEA
:1025E00001116423B1FBF3F101F00F0111442268E2
:1025F000916070BD0038014077B581B00446154642
:102600000298A062A58500202064222084F83E0064
:102610001C48A16B88621C48A16BC8621B48A16B57
:1026200008630020A16B486302AE32682368191D5D
:102630002B46A06BFDF7CCFF00BF00200090206868
:102640000068009020684068009000BF00BF00BF95
:10265000002084F83C0000BF2068C06840F480700F
:102660002168C8602068406940F001002168486125
:102670002068406940F0400021684861002004B0B3
:1026800070BD0000252300088D230008D522000816
:10269000014691F83D00212828D18868B0F5805F77
:1026A0000BD1086948B90A6A1088C0F308000B68A2
:1026B0005860086A801C086205E00B6A581C0862B2
:1026C00018780B685860C88C401E80B2C88458B90E
:1026D0000868C06820F080000B68D8600868C0688F
:1026E00040F040000B68D860002070470220FCE7F3
:1026F0002DE9F04104460D4617469846069E21E016
:10270000701CF8B12EB1FEF785F9A0EB0800B042BD
:1027100018D92068C06820F4D0702168C86020688B
:10272000406920F0010021684861202084F83D00C4
:1027300084F83E0000BF002084F83C0000BF032066
:10274000BDE8F081206800682840A84201D101203E
:1027500000E00020B842D3D00020F1E710B50248D5
:10276000FFF776F810BD00000801002000BFFEE76B
:1027700002480068C0F30220704700000CED00E042
:1027800010B5002804DB0A07130E054A135406E0AF
:102790000A07140E034A00F00F031B1FD45410BD88
:1027A00000E400E018ED00E002E008C8121F08C1D4
:1027B000002AFAD170477047002001E001C1121FC2
:1027C000002AFBD1704700001CB500250026002719
:1027D0000024FEF761F9FFF757FCFFF7FBFAFFF75C
:1027E000EFFBFFF767FBFFF7A9FBFFF74FFBFFF7D7
:1027F000D7FAFFF701FCA1200190FFF74DFD044639
:102800000DE04FF6FF73012201A91F48FFF75BFAA5
:102810004FF4FA70FDF72AFFFDF7ACFC0546002DDA
:10282000EFD030E0FDF7EAFC0646FFF735FD044641
:1028300026E0FFF719FC0746012F05D100200746C7
:102840000646FFF757FC1DE0FFF726FDA04216D015
:10285000FFF722FD082101EB0010C0B200904FF6F7
:10286000FF73012269460848FFF72DFAFFF714FDB0
:102870000446132C03D10026FFF73CFC02E000BF06
:10288000012ED6D000BFCDE70801002000000000D7
:102890000000000001020304060708090000000010
:1028A00001020304C42800080000002028000000E2
:1028B000A8270008EC280008280000206805000070
:1028C000B827000800000000000000000000000021
:1028D00010000000010000000024F40000000108C6
:0C28E00004040001C20000000000000021
:04000005080000ED02
:00000001FF
